{
  "_format": "hh-sol-artifact-1",
  "contractName": "PixelCharity",
  "sourceName": "contracts/PixelCharity.sol",
  "abi": [
    {
      "inputs": [
        {
          "internalType": "address",
          "name": "initialOwner",
          "type": "address"
        }
      ],
      "stateMutability": "nonpayable",
      "type": "constructor"
    },
    {
      "inputs": [
        {
          "internalType": "address",
          "name": "owner",
          "type": "address"
        }
      ],
      "name": "OwnableInvalidOwner",
      "type": "error"
    },
    {
      "inputs": [
        {
          "internalType": "address",
          "name": "account",
          "type": "address"
        }
      ],
      "name": "OwnableUnauthorizedAccount",
      "type": "error"
    },
    {
      "anonymous": false,
      "inputs": [
        {
          "indexed": true,
          "internalType": "address",
          "name": "donor",
          "type": "address"
        },
        {
          "indexed": true,
          "internalType": "uint256",
          "name": "pixelIndex",
          "type": "uint256"
        },
        {
          "indexed": false,
          "internalType": "uint256",
          "name": "amount",
          "type": "uint256"
        },
        {
          "indexed": false,
          "internalType": "string",
          "name": "message",
          "type": "string"
        }
      ],
      "name": "NewDonation",
      "type": "event"
    },
    {
      "anonymous": false,
      "inputs": [
        {
          "indexed": true,
          "internalType": "address",
          "name": "previousOwner",
          "type": "address"
        },
        {
          "indexed": true,
          "internalType": "address",
          "name": "newOwner",
          "type": "address"
        }
      ],
      "name": "OwnershipTransferred",
      "type": "event"
    },
    {
      "inputs": [],
      "name": "MAX_PIXELS",
      "outputs": [
        {
          "internalType": "uint256",
          "name": "",
          "type": "uint256"
        }
      ],
      "stateMutability": "view",
      "type": "function"
    },
    {
      "inputs": [
        {
          "internalType": "uint256",
          "name": "pixelIndex",
          "type": "uint256"
        },
        {
          "internalType": "string",
          "name": "message",
          "type": "string"
        }
      ],
      "name": "donate",
      "outputs": [],
      "stateMutability": "payable",
      "type": "function"
    },
    {
      "inputs": [],
      "name": "getDonations",
      "outputs": [
        {
          "components": [
            {
              "internalType": "address",
              "name": "donor",
              "type": "address"
            },
            {
              "internalType": "uint256",
              "name": "amount",
              "type": "uint256"
            },
            {
              "internalType": "string",
              "name": "message",
              "type": "string"
            },
            {
              "internalType": "uint256",
              "name": "pixelIndex",
              "type": "uint256"
            }
          ],
          "internalType": "struct PixelCharity.Donation[]",
          "name": "",
          "type": "tuple[]"
        }
      ],
      "stateMutability": "view",
      "type": "function"
    },
    {
      "inputs": [],
      "name": "owner",
      "outputs": [
        {
          "internalType": "address",
          "name": "",
          "type": "address"
        }
      ],
      "stateMutability": "view",
      "type": "function"
    },
    {
      "inputs": [
        {
          "internalType": "uint256",
          "name": "",
          "type": "uint256"
        }
      ],
      "name": "pixelToDonor",
      "outputs": [
        {
          "internalType": "address",
          "name": "",
          "type": "address"
        }
      ],
      "stateMutability": "view",
      "type": "function"
    },
    {
      "inputs": [],
      "name": "renounceOwnership",
      "outputs": [],
      "stateMutability": "nonpayable",
      "type": "function"
    },
    {
      "inputs": [
        {
          "internalType": "address",
          "name": "newOwner",
          "type": "address"
        }
      ],
      "name": "transferOwnership",
      "outputs": [],
      "stateMutability": "nonpayable",
      "type": "function"
    },
    {
      "inputs": [],
      "name": "withdraw",
      "outputs": [],
      "stateMutability": "nonpayable",
      "type": "function"
    }
  ],
  "bytecode": "0x60806040523480156200001157600080fd5b50604051620015dc380380620015dc8339818101604052810190620000379190620001f4565b80600073ffffffffffffffffffffffffffffffffffffffff168173ffffffffffffffffffffffffffffffffffffffff1603620000ad5760006040517f1e4fbdf7000000000000000000000000000000000000000000000000000000008152600401620000a4919062000237565b60405180910390fd5b620000be81620000c660201b60201c565b505062000254565b60008060009054906101000a900473ffffffffffffffffffffffffffffffffffffffff169050816000806101000a81548173ffffffffffffffffffffffffffffffffffffffff021916908373ffffffffffffffffffffffffffffffffffffffff1602179055508173ffffffffffffffffffffffffffffffffffffffff168173ffffffffffffffffffffffffffffffffffffffff167f8be0079c531659141344cd1fd0a4f28419497f9722a3daafe3b4186f6b6457e060405160405180910390a35050565b600080fd5b600073ffffffffffffffffffffffffffffffffffffffff82169050919050565b6000620001bc826200018f565b9050919050565b620001ce81620001af565b8114620001da57600080fd5b50565b600081519050620001ee81620001c3565b92915050565b6000602082840312156200020d576200020c6200018a565b5b60006200021d84828501620001dd565b91505092915050565b6200023181620001af565b82525050565b60006020820190506200024e600083018462000226565b92915050565b61137880620002646000396000f3fe60806040526004361061007b5760003560e01c8063e25f84161161004e578063e25f8416146100f5578063f1392f9914610120578063f2fde38b1461015d578063fd7982ca146101865761007b565b80633ccfd60b14610080578063715018a6146100975780638d59d1f1146100ae5780638da5cb5b146100ca575b600080fd5b34801561008c57600080fd5b506100956101b1565b005b3480156100a357600080fd5b506100ac6102b8565b005b6100c860048036038101906100c391906109f3565b6102cc565b005b3480156100d657600080fd5b506100df6105b8565b6040516100ec9190610a94565b60405180910390f35b34801561010157600080fd5b5061010a6105e1565b6040516101179190610c82565b60405180910390f35b34801561012c57600080fd5b5061014760048036038101906101429190610ca4565b61073c565b6040516101549190610a94565b60405180910390f35b34801561016957600080fd5b50610184600480360381019061017f9190610cfd565b61076f565b005b34801561019257600080fd5b5061019b6107f5565b6040516101a89190610d39565b60405180910390f35b6101b96107fb565b600047905060008111610201576040517f08c379a00000000000000000000000000000000000000000000000000000000081526004016101f890610db1565b60405180910390fd5b600061020b6105b8565b73ffffffffffffffffffffffffffffffffffffffff168260405161022e90610e02565b60006040518083038185875af1925050503d806000811461026b576040519150601f19603f3d011682016040523d82523d6000602084013e610270565b606091505b50509050806102b4576040517f08c379a00000000000000000000000000000000000000000000000000000000081526004016102ab90610e63565b60405180910390fd5b5050565b6102c06107fb565b6102ca6000610882565b565b6000341161030f576040517f08c379a000000000000000000000000000000000000000000000000000000000815260040161030690610ecf565b60405180910390fd5b6103e88310610353576040517f08c379a000000000000000000000000000000000000000000000000000000000815260040161034a90610f3b565b60405180910390fd5b600073ffffffffffffffffffffffffffffffffffffffff166002600085815260200190815260200160002060009054906101000a900473ffffffffffffffffffffffffffffffffffffffff1673ffffffffffffffffffffffffffffffffffffffff16146103f5576040517f08c379a00000000000000000000000000000000000000000000000000000000081526004016103ec90610fa7565b60405180910390fd5b336002600085815260200190815260200160002060006101000a81548173ffffffffffffffffffffffffffffffffffffffff021916908373ffffffffffffffffffffffffffffffffffffffff160217905550600160405180608001604052803373ffffffffffffffffffffffffffffffffffffffff16815260200134815260200184848080601f016020809104026020016040519081016040528093929190818152602001838380828437600081840152601f19601f82011690508083019250505050505050815260200185815250908060018154018082558091505060019003906000526020600020906004020160009091909190915060008201518160000160006101000a81548173ffffffffffffffffffffffffffffffffffffffff021916908373ffffffffffffffffffffffffffffffffffffffff1602179055506020820151816001015560408201518160020190816105539190611202565b50606082015181600301555050823373ffffffffffffffffffffffffffffffffffffffff167f1747b996ce8b310ff7a55e00066d88fc1bb2bcbe166bb80e479c4cc201d5e7a23485856040516105ab93929190611310565b60405180910390a3505050565b60008060009054906101000a900473ffffffffffffffffffffffffffffffffffffffff16905090565b60606001805480602002602001604051908101604052809291908181526020016000905b8282101561073357838290600052602060002090600402016040518060800160405290816000820160009054906101000a900473ffffffffffffffffffffffffffffffffffffffff1673ffffffffffffffffffffffffffffffffffffffff1673ffffffffffffffffffffffffffffffffffffffff1681526020016001820154815260200160028201805461069890611025565b80601f01602080910402602001604051908101604052809291908181526020018280546106c490611025565b80156107115780601f106106e657610100808354040283529160200191610711565b820191906000526020600020905b8154815290600101906020018083116106f457829003601f168201915b5050505050815260200160038201548152505081526020019060010190610605565b50505050905090565b60026020528060005260406000206000915054906101000a900473ffffffffffffffffffffffffffffffffffffffff1681565b6107776107fb565b600073ffffffffffffffffffffffffffffffffffffffff168173ffffffffffffffffffffffffffffffffffffffff16036107e95760006040517f1e4fbdf70000000000000000000000000000000000000000000000000000000081526004016107e09190610a94565b60405180910390fd5b6107f281610882565b50565b6103e881565b610803610946565b73ffffffffffffffffffffffffffffffffffffffff166108216105b8565b73ffffffffffffffffffffffffffffffffffffffff161461088057610844610946565b6040517f118cdaa70000000000000000000000000000000000000000000000000000000081526004016108779190610a94565b60405180910390fd5b565b60008060009054906101000a900473ffffffffffffffffffffffffffffffffffffffff169050816000806101000a81548173ffffffffffffffffffffffffffffffffffffffff021916908373ffffffffffffffffffffffffffffffffffffffff1602179055508173ffffffffffffffffffffffffffffffffffffffff168173ffffffffffffffffffffffffffffffffffffffff167f8be0079c531659141344cd1fd0a4f28419497f9722a3daafe3b4186f6b6457e060405160405180910390a35050565b600033905090565b600080fd5b600080fd5b6000819050919050565b61096b81610958565b811461097657600080fd5b50565b60008135905061098881610962565b92915050565b600080fd5b600080fd5b600080fd5b60008083601f8401126109b3576109b261098e565b5b8235905067ffffffffffffffff8111156109d0576109cf610993565b5b6020830191508360018202830111156109ec576109eb610998565b5b9250929050565b600080600060408486031215610a0c57610a0b61094e565b5b6000610a1a86828701610979565b935050602084013567ffffffffffffffff811115610a3b57610a3a610953565b5b610a478682870161099d565b92509250509250925092565b600073ffffffffffffffffffffffffffffffffffffffff82169050919050565b6000610a7e82610a53565b9050919050565b610a8e81610a73565b82525050565b6000602082019050610aa96000830184610a85565b92915050565b600081519050919050565b600082825260208201905092915050565b6000819050602082019050919050565b610ae481610a73565b82525050565b610af381610958565b82525050565b600081519050919050565b600082825260208201905092915050565b60005b83811015610b33578082015181840152602081019050610b18565b60008484015250505050565b6000601f19601f8301169050919050565b6000610b5b82610af9565b610b658185610b04565b9350610b75818560208601610b15565b610b7e81610b3f565b840191505092915050565b6000608083016000830151610ba16000860182610adb565b506020830151610bb46020860182610aea565b5060408301518482036040860152610bcc8282610b50565b9150506060830151610be16060860182610aea565b508091505092915050565b6000610bf88383610b89565b905092915050565b6000602082019050919050565b6000610c1882610aaf565b610c228185610aba565b935083602082028501610c3485610acb565b8060005b85811015610c705784840389528151610c518582610bec565b9450610c5c83610c00565b925060208a01995050600181019050610c38565b50829750879550505050505092915050565b60006020820190508181036000830152610c9c8184610c0d565b905092915050565b600060208284031215610cba57610cb961094e565b5b6000610cc884828501610979565b91505092915050565b610cda81610a73565b8114610ce557600080fd5b50565b600081359050610cf781610cd1565b92915050565b600060208284031215610d1357610d1261094e565b5b6000610d2184828501610ce8565b91505092915050565b610d3381610958565b82525050565b6000602082019050610d4e6000830184610d2a565b92915050565b600082825260208201905092915050565b7f4e6f2066756e647320746f207769746864726177000000000000000000000000600082015250565b6000610d9b601483610d54565b9150610da682610d65565b602082019050919050565b60006020820190508181036000830152610dca81610d8e565b9050919050565b600081905092915050565b50565b6000610dec600083610dd1565b9150610df782610ddc565b600082019050919050565b6000610e0d82610ddf565b9150819050919050565b7f5769746864726177206661696c65640000000000000000000000000000000000600082015250565b6000610e4d600f83610d54565b9150610e5882610e17565b602082019050919050565b60006020820190508181036000830152610e7c81610e40565b9050919050565b7f446f6e6174696f6e206d757374206265203e2030000000000000000000000000600082015250565b6000610eb9601483610d54565b9150610ec482610e83565b602082019050919050565b60006020820190508181036000830152610ee881610eac565b9050919050565b7f506978656c20696e646578206d75737420626520302e2e393939000000000000600082015250565b6000610f25601a83610d54565b9150610f3082610eef565b602082019050919050565b60006020820190508181036000830152610f5481610f18565b9050919050565b7f506978656c20616c7265616479206f6363757069656400000000000000000000600082015250565b6000610f91601683610d54565b9150610f9c82610f5b565b602082019050919050565b60006020820190508181036000830152610fc081610f84565b9050919050565b7f4e487b7100000000000000000000000000000000000000000000000000000000600052604160045260246000fd5b7f4e487b7100000000000000000000000000000000000000000000000000000000600052602260045260246000fd5b6000600282049050600182168061103d57607f821691505b6020821081036110505761104f610ff6565b5b50919050565b60008190508160005260206000209050919050565b60006020601f8301049050919050565b600082821b905092915050565b6000600883026110b87fffffffffffffffffffffffffffffffffffffffffffffffffffffffffffffffff8261107b565b6110c2868361107b565b95508019841693508086168417925050509392505050565b6000819050919050565b60006110ff6110fa6110f584610958565b6110da565b610958565b9050919050565b6000819050919050565b611119836110e4565b61112d61112582611106565b848454611088565b825550505050565b600090565b611142611135565b61114d818484611110565b505050565b5b818110156111715761116660008261113a565b600181019050611153565b5050565b601f8211156111b65761118781611056565b6111908461106b565b8101602085101561119f578190505b6111b36111ab8561106b565b830182611152565b50505b505050565b600082821c905092915050565b60006111d9600019846008026111bb565b1980831691505092915050565b60006111f283836111c8565b9150826002028217905092915050565b61120b82610af9565b67ffffffffffffffff81111561122457611223610fc7565b5b61122e8254611025565b611239828285611175565b600060209050601f83116001811461126c576000841561125a578287015190505b61126485826111e6565b8655506112cc565b601f19841661127a86611056565b60005b828110156112a25784890151825560018201915060208501945060208101905061127d565b868310156112bf57848901516112bb601f8916826111c8565b8355505b6001600288020188555050505b505050505050565b82818337600083830152505050565b60006112ef8385610d54565b93506112fc8385846112d4565b61130583610b3f565b840190509392505050565b60006040820190506113256000830186610d2a565b81810360208301526113388184866112e3565b905094935050505056fea2646970667358221220379636abc084d78ea8b0c02e388b43b40c4f081477b537201c362dbb3a691a4d64736f6c63430008140033",
  "linkReferences": {},
  "deployedLinkReferences": {}
}