{
  "_format": "hh-sol-artifact-1",
  "contractName": "AetherMeta",
  "sourceName": "contracts/AetherMeta.sol",
  "abi": [
    {
      "inputs": [],
      "stateMutability": "nonpayable",
      "type": "constructor"
    },
    {
      "inputs": [],
      "name": "deployedAt",
      "outputs": [
        {
          "internalType": "uint256",
          "name": "",
          "type": "uint256"
        }
      ],
      "stateMutability": "view",
      "type": "function"
    },
    {
      "inputs": [],
      "name": "label",
      "outputs": [
        {
          "internalType": "string",
          "name": "",
          "type": "string"
        }
      ],
      "stateMutability": "view",
      "type": "function"
    },
    {
      "inputs": [],
      "name": "name",
      "outputs": [
        {
          "internalType": "string",
          "name": "",
          "type": "string"
        }
      ],
      "stateMutability": "view",
      "type": "function"
    },
    {
      "inputs": [],
      "name": "version",
      "outputs": [
        {
          "internalType": "string",
          "name": "",
          "type": "string"
        }
      ],
      "stateMutability": "view",
      "type": "function"
    }
  ],
  "bytecode": "0x60a060405234801561001057600080fd5b5042608081815250506080516103a361003460003960006101d001526103a36000f3fe608060405234801561001057600080fd5b506004361061004c5760003560e01c806306fdde031461005157806354fd4d501461006f578063cb4774c41461008d578063eae4c19f146100ab575b600080fd5b6100596100c9565b6040516100669190610282565b60405180910390f35b610077610102565b6040516100849190610282565b60405180910390f35b61009561013b565b6040516100a29190610282565b60405180910390f35b6100b36101ce565b6040516100c091906102bd565b60405180910390f35b6040518060400160405280600f81526020017f4165746865722045786368616e6765000000000000000000000000000000000081525081565b6040518060400160405280600181526020017f310000000000000000000000000000000000000000000000000000000000000081525081565b60606040518060400160405280600f81526020017f4165746865722045786368616e676500000000000000000000000000000000008152506040518060400160405280600181526020017f31000000000000000000000000000000000000000000000000000000000000008152506040516020016101ba92919061033a565b604051602081830303815290604052905090565b7f000000000000000000000000000000000000000000000000000000000000000081565b600081519050919050565b600082825260208201905092915050565b60005b8381101561022c578082015181840152602081019050610211565b60008484015250505050565b6000601f19601f8301169050919050565b6000610254826101f2565b61025e81856101fd565b935061026e81856020860161020e565b61027781610238565b840191505092915050565b6000602082019050818103600083015261029c8184610249565b905092915050565b6000819050919050565b6102b7816102a4565b82525050565b60006020820190506102d260008301846102ae565b92915050565b600081905092915050565b60006102ee826101f2565b6102f881856102d8565b935061030881856020860161020e565b80840191505092915050565b7f2076000000000000000000000000000000000000000000000000000000000000815250565b600061034682856102e3565b915061035182610314565b60028201915061036182846102e3565b9150819050939250505056fea264697066735822122025d3f57dbc2f1cf5c23853a7ffa009156efcf1f3a79ae8e239f9279ab110d51464736f6c63430008140033",
  "linkReferences": {},
  "deployedLinkReferences": {}
}